:100000000C949E000C94C6000C94C6000C94C60080
:100010000C94C6000C94C6000C943E040C94C600CC
:100020000C94C6000C94C6000C94C6000C94C60038
:100030000C94C6000C94C6000C94C6000C94C60028
:100040000C94F4030C94C6000C94C2030C949C030F
:100050000C94C6000C94C6000C94C6000C94C60008
:100060000C94C6000C94C60007634236B79BD8A711
:100070001A39685618AEBAAB558C1D3CB7CC5763CD
:10008000BD6DEDFD753EF6177231BF000000803F7B
:1000900008000000BE922449123EABAAAA2ABECD97
:1000A000CCCC4C3E00000080BEABAAAAAA3E000009
:1000B0000000BF000000803F000000000008417801
:1000C000D3BB4387D1133D190E3CC3BD4282AD2B38
:1000D0003E68EC8276BED98FE1A93E4C80EFFFBE30
:1000E00001C4FF7F3F000000000000000008000284
:1000F00001000003040700000000000000000000F1
:100100000000250028002B0000000000240027002C
:100110002A00040404040404040402020202020289
:1001200003030303030301020408102040800102BB
:1001300004081020010204081020F80A11241FBE30
:10014000CFEFD8E0DEBFCDBF11E0A0E0B1E0EAE341
:10015000F7E202C005900D92A232B107D9F721E073
:10016000A2E2B1E001C01D92A93FB207E1F710E0A1
:10017000CEE9D0E004C02197FE010E947A11CD396A
:10018000D107C9F70E94EB040C949B130C94000058
:1001900090E0FC01EA5DFE4F2491FC01EE5EFE4F13
:1001A0008491882399F090E0880F991FFC01E85F03
:1001B000FE4FA591B491FC01E250FF4F85919491BF
:1001C0008FB7F894EC91E22BEC938FBF0895CF9208
:1001D000DF92EF92FF920F931F93CF93DF936C0107
:1001E0007A018B01C0E0D0E0CE15DF0589F0D8019F
:1001F0006D918D01D601ED91FC910190F081E02D82
:10020000C6010995892B11F47E0102C02196ECCF1D
:10021000C701DF91CF911F910F91FF90EF90DF9079
:10022000CF900895FC01918D828D981761F0828D99
:10023000DF01A80FB11D5D968C91928D9F5F9F731A
:10024000928F90E008958FEF9FEF0895FC01918DBC
:10025000828D981731F0828DE80FF11D858D90E029
:1002600008958FEF9FEF0895FC01918D228D892FC6
:1002700090E0805C9F4F821B91098F7399270895AE
:1002800086E591E00E94340121E0892B09F420E009
:10029000822F0895FC01848DDF01A80FB11DA35AA0
:1002A000BF4F2C91848D90E001968F739927848F96
:1002B000A689B7892C93A089B1898C9180648C938D
:1002C000938D848D981306C00288F389E02D808178
:1002D0008F7D80830895EF92FF920F931F93CF93AA
:1002E000DF93EC0181E0888F9B8D8C8D981305C086
:1002F000E889F989808185FD24C0F62E0B8D10E0F8
:100300000F5F1F4F0F731127E02E8C8DE8120CC06A
:100310000FB607FCFACFE889F989808185FFF5CF10
:10032000CE010E944A01F1CF8B8DFE01E80FF11D35
:10033000E35AFF4FF0820B8FEA89FB89808180624C
:1003400007C0EE89FF896083E889F989808180642C
:10035000808381E090E0DF91CF911F910F91FF901A
:10036000EF900895CF93DF93EC01888D8823C9F037
:10037000EA89FB89808185FD05C0A889B9898C91AE
:1003800086FD0FC00FB607FCF5CF808185FFF2CF49
:10039000A889B9898C9185FFEDCFCE010E944A01D1
:1003A000E7CFDF91CF91089580E090E0892B29F08D
:1003B0000E94400181110C940000089590E0FC011E
:1003C000E651FF4F3491FC01EA5DFE4F2491FC01A0
:1003D000EE5EFE4FE491EE2309F43BC0332339F186
:1003E000333091F038F43130A9F0323001F584B572
:1003F0008F7D12C0373091F03830A1F03430B9F42D
:10040000809180008F7D03C0809180008F778093E2
:1004100080000DC084B58F7784BD09C08091B00085
:100420008F7703C08091B0008F7D8093B000F0E0A3
:10043000EE0FFF1FE250FF4FA591B4918FB7F894D4
:10044000EC91611103C020952E2301C02E2B2C931B
:100450008FBF08951F93CF93DF93182FEB010E9456
:10046000C800209711F460E004C0CF3FD10539F4F3
:1004700061E0812FDF91CF911F910C94DE01E12F7C
:10048000F0E0E651FF4FE491E330F9F048F4E13059
:10049000B9F0E230A1F584B5806284BDC8BD34C036
:1004A000E730E9F0E83019F1E43049F58091800057
:1004B000806280938000D0938B00C0938A0024C018
:1004C00084B5806884BDC7BD1FC0809180008068EE
:1004D00080938000D0938900C093880015C08091DC
:1004E000B00080688093B000C093B3000DC08091CD
:1004F000B00080628093B000C093B40005C0C038E3
:10050000D1050CF0B5CFAFCFDF91CF911F910895FA
:100510003FB7F8948091270190912801A09129017B
:10052000B0912A0126B5A89B05C02F3F19F001966E
:10053000A11DB11D3FBFBA2FA92F982F8827820F69
:10054000911DA11DB11DBC01CD0142E0660F771FB9
:10055000881F991F4A95D1F708952FB7F894609195
:1005600023017091240180912501909126012FBFD4
:1005700008950F931F930E94AD0260935E017093E4
:100580005F018093600190936101E0915601F091C9
:1005900057010680F781E02D86E591E0099597FFE8
:1005A0001FC00E94AD0200915E0110915F01209179
:1005B000600130916101DC01CB01801B910BA20B2A
:1005C000B30B00915A0110915B0120915C013091B5
:1005D0005D0180179107A207B307B8F28FEF9FEF75
:1005E0001F910F910895009769F0FC010190002080
:1005F000E9F73197AF01481B590BBC0186E591E043
:100600000C94E70080E090E008950C94F3028F9240
:100610009F92AF92BF920F931F93CF93DF93CDB76B
:10062000DEB7A1970FB6F894DEBF0FBECDBF19A2FB
:10063000423008F44AE08E010F5D1F4F842E912C4A
:10064000A12CB12CA50194010E94DB0DE62FB9016C
:10065000CA0101501109EA3014F4E05D01C0E95CFF
:10066000D801EC93232B242B252B61F7C8010E9482
:10067000F302A1960FB6F894DEBF0FBECDBFDF9197
:10068000CF911F910F91BF90AF909F908F90089541
:100690000E9477130F931F93CF93DF93EC01888110
:1006A0009981009729F02A813B812617370788F422
:1006B0008B016F5F7F4F0E94AD12009761F09983AD
:1006C00088831B830A832C813D81232B11F4FC0139
:1006D000108281E001C080E0DF91CF911F910F91E6
:1006E0000895EF92FF920F931F93CF93DF93EC0146
:1006F0007B018A01BA010E944A0328813981811154
:100700000DC02115310519F0C9010E941512198279
:1007100018821D821C821B821A8206C01D830C83D4
:10072000B701C9010E948513CE01DF91CF911F91BE
:100730000F91FF90EF9008951F920F920FB60F92B6
:1007400011242F933F934F935F936F937F938F93D6
:100750009F93AF93BF93EF93FF9386E591E00E9441
:100760004A01FF91EF91BF91AF919F918F917F913E
:100770006F915F914F913F912F910F900FBE0F900E
:100780001F9018951F920F920FB60F9211242F935E
:100790008F939F93EF93FF93E0916601F091670130
:1007A0008081E0916C01F0916D0182FD12C0908119
:1007B00080916F018F5F8F7320917001821751F0CC
:1007C000E0916F01F0E0EA5AFE4F958F80936F0140
:1007D00001C08081FF91EF919F918F912F910F9098
:1007E0000FBE0F901F9018951F920F920FB60F9289
:1007F00011242F933F938F939F93AF93BF93809137
:10080000230190912401A0912501B09126013091FE
:10081000220123E0230F2D3720F40196A11DB11DE5
:1008200005C026E8230F0296A11DB11D20932201C9
:100830008093230190932401A0932501B093260176
:100840008091270190912801A0912901B0912A015E
:100850000196A11DB11D8093270190932801A093BB
:100860002901B0932A01BF91AF919F918F913F9140
:100870002F910F900FBE0F901F9018951F920F92FF
:100880000FB60F9211248F939F93AF93BF938091D4
:10089000840090E0A0E0B0E080934A0190934B0187
:1008A000A0934C01B0934D0181E080935201BF9120
:1008B000AF919F918F910F900FBE0F901F90189541
:1008C0008230910538F0880F991F880F991F05977E
:1008D0000197F1F70895EF92FF920F931F93CF9333
:1008E000DF93EC0100E011E07C0183E0E80EF11CF5
:1008F0006881662361F06150688370E0F80180814F
:100900000E942A0288EE93E00E946004F1CF2196B3
:100910000F5F1F4FCE15DF0559F781E0DF91CF91B3
:100920001F910F91FF90EF9008952F923F924F9259
:100930005F926F927F928F929F92AF92BF92CF926F
:10094000DF92EF92FF920F931F93CF9319012A0129
:100950003B014C01C0E09101A201B301C401A0E040
:100960000E946E11D9F08AE0A82EB12CC12CD12C96
:10097000E12CF12C00E010E09101A201B301C401CF
:100980000E940F11C20F9101A201B301C4010E9484
:10099000111119012A013B014C01DDCFCA3040F091
:1009A0002C2E312C412C512C612C712C4301D2CF97
:1009B0008C2FCF911F910F91FF90EF90DF90CF90F0
:1009C000BF90AF909F908F907F906F905F904F906F
:1009D0003F902F900895CF93DF93CDB7DEB7C754E4
:1009E000D1090FB6F894DEBF0FBECDBF789484B5A1
:1009F000826084BD84B5816084BD85B5826085BD1B
:100A000085B5816085BD80916E00816080936E00A8
:100A1000109281008091810082608093810080919A
:100A2000810081608093810080918000816080934B
:100A300080008091B10084608093B1008091B0000B
:100A400081608093B00080917A00846080937A0006
:100A500080917A00826080937A0080917A00816030
:100A600080937A0080917A00806880937A00109257
:100A7000C100A895F89414BE8091600088618093AD
:100A8000600080E4809360007894E0916601F091CA
:100A9000670182E08083E0916201F091630110823E
:100AA000E0916401F091650180E1808310926E0114
:100AB000E0916A01F0916B0186E08083E09168012A
:100AC000F0916901808180618083E0916801F091FB
:100AD0006901808188608083E0916801F0916901FB
:100AE000808180688083E0916801F0916901808154
:100AF0008F7D8083809100010E94C8008091010158
:100B00000E94C800809102010E94C80083E591E024
:100B100063E0762E780E5E010EE2A00EB11C8E010F
:100B20000F5F1F4F1AAB09AB13E01A0D24961FAFCE
:100B300024978DE191E00E9405036091550170E0DA
:100B400080E090E04AE00E9407038FE191E00E947C
:100B500005036091530170E080E090E04AE00E945C
:100B600007038FE191E00E9405036091540170E05A
:100B700080E090E04AE00E9407038FE191E00E944C
:100B8000050380915201882361F1109252018091F6
:100B90004E0190914F01A0915001B0915101880FE9
:100BA000991FAA1FBB1F811D40914A0150914B0103
:100BB00060914C0170914D0184279527A627B72796
:100BC00080934E0190934F01A0935001B093510137
:100BD000809149018F5F80934901803210F010921B
:100BE0004901809153018EA7809154018FA7809174
:100BF000550188AB80914801882309F46EC080912B
:100C0000470181116AC00E94AD02C0904301D0909B
:100C10004401E0904501F0904601DC01CB018C19C4
:100C20009D09AE09BF0980319742A105B10508F4BD
:100C300054C00E94AD0260934301709344018093BD
:100C4000450190934601E3E5F1E080818111108236
:100C500031967E12FACF80914201882339F01092AA
:100C60004801C5010E946B048093410180914101BC
:100C7000882399F183B7817F83BF83B7816083BF66
:100C8000809164008160809364008091640084603E
:100C900080936400809164008062809364008091FE
:100CA0006400886080936400809164008064809315
:100CB00064008091640080688093640083B78160E1
:100CC00083BF889583B78E7F83BF83B78E7F83BFB3
:100CD000809164008071809364000E94AD02209135
:100CE0004701222379F0672B682B692B59F498E090
:100CF00088E10FB6F894A895809360000FBE90939A
:100D00006000FFCF90914001943010F010924001AC
:100D10009091410191115FC08091420181115EC0AB
:100D20000E948802C0903C01D0903D01E0903E01BD
:100D3000F0903F01DC01CB018C199D09AE09BF0980
:100D4000883E9340A105B10508F448C0F0903B01EE
:100D50001FEFF11203C081E080933A0150E0852E2D
:100D600051E0952E03E511E0F80161918F0170E0EB
:100D7000F40181914F010E942A027012F5CF8091F7
:100D80004001E82FF0E0ED5AFE4FF082F11009C06B
:100D900090913A01992329F08F5F8093400110923E
:100DA0003A0180913A01811102C0F39401C0FA9492
:100DB000F0923B0180914001833010F0109240018D
:100DC0000E94880260933C0170933D0180933E0134
:100DD00090933F0103C0222309F4E9C386E591E023
:100DE0000E94B2014E0122E2820E911C86E591E042
:100DF0000E943401181619060CF04FC319A618A644
:100E00001BA61AA61DA61CA640E050E060E271E0F9
:100E1000CE0188960E9471030E94B902ECA4FDA441
:100E200097FD1DC08B339105D1F089831A820FEF96
:100E3000E01AF00AB701CE0188960E944A0388237F
:100E400059F328A539A58CA59DA5BE016F5F7F4FDD
:100E5000820F931F0E948513FDA6ECA6DDCFC8A4C8
:100E6000D9A4C114D104E9F1E114F104D1F11601BE
:100E700021011FEF211A310AF2018081082E000C96
:100E8000990B0E94920C892B99F7F1E0EF1AF10867
:100E9000EC0CFD1CF7018081082E000C990B0E94C0
:100EA000920C892B81F4FFEFEF1AFF0AA701441976
:100EB00055095DA74CA7C414D50460F4B201C6015E
:100EC0000E947C1307C0E414F50468F301E0E01A03
:100ED000F108E0CFE8A5F9A58CA59DA5E80FF91FBD
:100EE00010828CA59DA5892B31F0E8A5F9A5309736
:100EF00011F0108101C010E08DE191E00E94050326
:100F00006091550170E080E090E04AE00E940703A4
:100F10008FE191E00E9405036091530170E080E051
:100F200090E04AE00E9407038FE191E00E940503F0
:100F30006091540170E080E090E04AE00E94070375
:100F40008FE191E00E9405031A3269F02CF411320E
:100F5000C1F0133241F086C2103429F01E3719F067
:100F60001D3209F07FC280914701882329F086E570
:100F700091E00E94B20103C081E080934801612C9E
:100F800002C06090470180914801811103C0662032
:100F900009F47EC286E591E00E94B2010E94AD0292
:100FA00060934301709344018093450190934601FF
:100FB0001A8219821C821B821E821D821AA31BA206
:100FC000F40101900020E9F73197AF014819590960
:100FD000B401CE0101960E9471038D819E814CA5C2
:100FE0005DA541155105C1F00097B1F0BA01841714
:100FF000950708F4BC0188A599A5461B570B5DA76A
:101000004CA7680F791F0E948C13E8A5F9A58CA541
:101010009DA5E80FF91F108289819A810E941512FF
:101020008CA59DA5892B21F088A599A5009721F471
:1010300010922B018BE291E040E150E060E070E023
:101040000E94810B562EC62ED72E7C011A3209F42F
:1010500001C13CF4113209F471C0133209F4A8C083
:1010600001C2103409F49BC01E3721F01D3209F073
:10107000F9C1CBC1609039019701860140E050E091
:10108000BA010BAB1CAB2DAB3EAB4FAB58AF69AF4E
:101090007AAF98014DA95EA960E070E080E090E031
:1010A0000E9495046812FCC180913501909136012F
:1010B000A0913701B0913801C816D906EA06FB069F
:1010C00009F4EEC18091310190913201A091330178
:1010D000B0913401C816D906EA06FB0609F4E0C14E
:1010E00030E0C32E31E0D32E43E5E42E41E0F42E70
:1010F000F70160816F3F69F06F5FF701608370E017
:10110000F60180810E942A0288EE93E00E9460042A
:10111000EFCFFFEFEF1AFF0A0FEFC01AD00A7E10D1
:10112000E7CF809153018EA7809154018FA78091C2
:10113000550188AB81E080934201AAC117E6C11630
:1011400010E1D1061AEFE1061DE2F10608F4A0C194
:101150009701860140E050E0BA010BAB1CAB2DAB10
:101160003EAB4FAB58AF69AF7AAF98014DA95EA9BE
:1011700060E070E080E090E00E949504F82E2AED97
:101180003DE64CEE53E262E070E080E090E00E94C9
:101190009504F8127DC1662009F47AC188C1C09215
:1011A0002D01D0922E01E0922F01F092300170C1FA
:1011B00080912D0190912E01A0912F01B0913001CD
:1011C0008C159D05AE05BF0569F40097A105B10515
:1011D00049F08F3F1FEF9107A107B10519F060900B
:1011E0002C0102C0662463948C019D0140E050E014
:1011F000BA018BAB1CAB2DAB3EAB4FAB58AF69AF5D
:101200007AAF9C014DA95EA960E070E080E090E0BB
:101210000E949504482E9701860140E050E0BA01F3
:10122000CBAA1CAB2DAB3EAB4FAB58AF69AF7AAF7F
:1012300096014DA95EA960E070E080E090E00E9418
:101240009504481202C0611011C180912C018111D6
:101250000DC18DC1C0923101D0923201E0923301B3
:10126000F0923401A701960160E070E0CB012BAF52
:101270003CAF4DAF5EAF6FAF21967FAF2197229607
:101280008FAF229723969FAF23970E9488020091E9
:101290004E0110914F012091500130915101600F8A
:1012A000711F821F931F611571058105910511F052
:1012B0000E94780B1BA21AA21DA21CA21FA21EA292
:1012C00020E1AE014F5F5F4FC701B6010E949B0C4A
:1012D000E9A9FAA901900020E9F73197AF0109A91E
:1012E0001AA9401B510BBE016F5F7F4FC4010E94C2
:1012F00071036EA17FA1660F771F660F771F80E0D5
:1013000090E00E94D00C9B01AC0160E070E080E0B6
:1013100090E40E94AB0E0E94750E9B01AC01161664
:10132000170618061906ECF425966FAF2597269632
:101330003FAF269727964FAF279728965FAF2897FE
:101340000E94730B25962FAD259726963FAD2697C5
:1013500027964FAD279728965FAD28970E94FD0DE1
:1013600004C060E070E080E090E01B012C018AA1E5
:101370009BA10E941512C214D304E404F50409F4DD
:1013800084CF2BAD3CAD4DAD5EAD60E070E080E054
:1013900090E00E949504682E9201810140E050E0A7
:1013A000BA010BAB1CAB2DAB3EAB4FAB58AF69AF2B
:1013B0007AAF98014DA95EA960E070E080E090E00E
:1013C0000E949504681261CF209235013092360157
:1013D00040923701509238019701860140E050E079
:1013E000BA01CBAA1CAB2DAB3EAB4FAB58AF69AF2C
:1013F0007AAF96014DA95EA960E070E080E090E0D0
:101400000E9495048093390143C017E6C11610E18C
:10141000D1061AEFE1061DE2F106D0F1970186012F
:1014200040E050E0BA010BAB1CAB2DAB3EAB4FAB79
:1014300058AF69AF7AAF98014DA95EA960E070E03E
:1014400080E090E00E949504F82E2AED3DE64CEEF7
:1014500053E262E070E080E090E00E949504F812B0
:1014600017C094C080E090E00E949B1380914201DD
:10147000811128C080912C01811124C00E94AD02ED
:1014800060933C0170933D0180933E0190933F0136
:1014900088A599A50E941512A9CC0E94D40149CB18
:1014A00010924801109239011092420162C098E0F6
:1014B00088E10FB6F894A895809360000FBE9093D2
:1014C0006000FFCFE0925301D09254015092550139
:1014D00093E5C92E91E0D92E20E0E22E21E0F22EF4
:1014E0002501F2016081F6018081861798F4F201EE
:1014F0006081F6018081861758F56150F2016083A2
:1015000070E0F70180810E942A0288EE93E00E9439
:101510006004EDCF681798F4F2016081F6018081D4
:101520006817B0F46F5FF201608370E0F7018081AB
:101530000E942A0288EE93E00E946004EDCF70E0E2
:10154000F70180810E942A0288EE93E00E946004E5
:10155000FFEF4F1A5F0A0FEFC01AD00A1FEFE11A10
:10156000F10A24960FAD24970411BBCF87CF1092B8
:10157000480181E08093470180914101811188CF2A
:10158000C5010E946B048093410182CF90912C0190
:1015900081E0892780932C0198E088E10FB6F894C8
:1015A000A895809360000FBE90936000FFCF0E94CB
:1015B000AD02C0904301D0904401E0904501F0900D
:1015C0004601DC01CB018C199D09AE09BF098036AB
:1015D0009A4EA105B10508F401CC98E088E10FB658
:1015E000F894A895809360000FBE90936000FFCFA1
:1015F000E6E5F1E01382128288EE93E0A0E0B0E02D
:1016000084839583A683B78381E191E0918380836E
:1016100085EC90E09587848784EC90E097878687B7
:1016200080EC90E0918B808B81EC90E0938B828BAF
:1016300082EC90E0958B848B86EC90E0978B868B88
:10164000118E128E138E148E08958F929F92AF92E8
:10165000BF92CF92DF92EF92FF92CF93DF93EC0194
:10166000688179818A819B81611571058105910568
:1016700021F464E279ED8BE597E02DE133EF41E071
:1016800050E00E94FD0D49015A019B01AC01A7EAFF
:10169000B1E40E941C0E6B017C01ACEEB4EFA5011D
:1016A00094010E942A0EDC01CB018C0D9D1DAE1D04
:1016B000BF1DB7FF03C00197A109B0488883998374
:1016C000AA83BB83BC01CD019F77DF91CF91FF90AF
:1016D000EF90DF90CF90BF90AF909F908F90089544
:1016E0000E94250B089583E091E00E94250B089548
:1016F00060930301709304018093050190930601A8
:101700000895A0E0B0E0E7E8FBE00C942F0E5C0148
:101710006B017A016115710519F0FB0191838083DA
:10172000E114F10429F0C7010297839708F0F1C092
:10173000E5012196F5011081812F90E00E94920C25
:10174000892B11F05E01F4CF1D3229F42196F501A9
:10175000118101E007C01B3221F4E5012296F50159
:10176000118100E0E114F10459F1F0E1EF16F10408
:1017700061F41033E1F488818F7D883569F5198132
:101780002296026070E1E72EF12C88E0E816F10461
:1017900039F12CF4F2E0EF16F104C9F12AC08AE025
:1017A000E816F10479F0E0E1EE16F10411F550E1EC
:1017B000E52EF12C812C912CA12C68E0B62E2CC0AA
:1017C0001033C9F23AE0E32EF12C4CEC842E982C25
:1017D000A82C4CE0B42E20C010E3E114F104A9F6CB
:1017E00098E0E92EF12C812C912CA12C20E1B22E35
:1017F00013C060E070E080E090E897010F2C000CCF
:10180000440B550B0E94DB0D49015A0105C0812C88
:10181000912CA12C80E4B82E60E020E030E0A901FA
:1018200027010F2C000C660877081E01E0EDE10F80
:10183000EA3060F08FEB810F8A3110F4E9EC05C0DB
:101840008FE9810F8A3128F5E9EAE10F8E2F90E0C8
:101850008E159F05F4F467FD18C082169306A40642
:10186000B50690F0C301B2010E94CB0D9B01AC0103
:101870002E0F311D411D511D213031054105F0E86C
:101880005F0710F461E001C06FEF2196F101108154
:10189000CCCF802F8170C114D10471F0662329F060
:1018A0002197F601D183C08307C001FF19C0229799
:1018B000F601D183C08314C067FF12C0811105C037
:1018C0002FEF3FEF4FEF5FE704C020E030E040E054
:1018D00050E882E290E09093F4018093F30116C007
:1018E000882341F050954095309521953F4F4F4FBB
:1018F0005F4F0CC057FF0AC082E290E09093F40162
:101900008093F3012FEF3FEF4FEF5FE7B901CA017B
:1019100004C060E070E080E090E0CDB7DEB7E2E1C7
:101920000C944B0E91110C94BD0C803219F089501F
:101930008550C8F70895BB27FA01A62F62177105D5
:1019400081059105330B30FB66F0AA27660F771FE0
:10195000881F991FAA1FA21710F0A21B6395385069
:10196000A9F7A05DAA3308F0A95DA19336F7B111DC
:10197000B1931082CA010C94C00C9927882708954E
:10198000DC01FC01672F71917723E1F7329704C0E6
:101990007C916D9370836291AE17BF07C8F3089571
:1019A000E89409C097FB3EF49095809570956195F9
:1019B0007F4F8F4F9F4F9923A9F0F92F96E9BB27AF
:1019C0009395F695879577956795B795F111F8CF2B
:1019D000FAF4BB0F11F460FF1BC06F5F7F4F8F4F96
:1019E0009F4F16C0882311F096E911C0772321F08C
:1019F0009EE8872F762F05C0662371F096E8862F24
:101A000070E060E02AF09A95660F771F881FDAF77A
:101A1000880F9695879597F908950E94200D0C944C
:101A2000910D0E94830D38F00E948A0D20F09523BD
:101A300011F00C947A0D0C94800D11240C94C50DAA
:101A40000E94A20D70F3959FC1F3950F50E0551FB2
:101A5000629FF001729FBB27F00DB11D639FAA2703
:101A6000F00DB11DAA1F649F6627B00DA11D661F52
:101A7000829F2227B00DA11D621F739FB00DA11D73
:101A8000621F839FA00D611D221F749F3327A00D2D
:101A9000611D231F849F600D211D822F762F6A2FC9
:101AA00011249F5750409AF0F1F088234AF0EE0F2E
:101AB000FF1FBB1F661F771F881F91505040A9F75B
:101AC0009E3F510580F00C947A0D0C94C50D5F3F3C
:101AD000E4F3983ED4F3869577956795B795F79597
:101AE000E7959F5FC1F7FE2B880F911D969587950F
:101AF00097F9089597F99F6780E870E060E008958E
:101B00009FEF80EC089500240A9416161706180615
:101B10000906089500240A941216130614060506F1
:101B20000895092E0394000C11F4882352F0BB0F82
:101B300040F4BF2B11F460FF04C06F5F7F4F8F4FE5
:101B40009F4F089557FD9058440F551F59F05F3F20
:101B500071F04795880F97FB991F61F09F3F79F0CF
:101B600087950895121613061406551FF2CF469551
:101B7000F1DF08C0161617061806991FF1CF8695D3
:101B80007105610508940895E894BB2766277727B7
:101B9000CB0197F90895DB018F939F930E941C0E50
:101BA000BF91AF91A29F800D911DA39F900DB29FF9
:101BB000900D11240895A1E21A2EAA1BBB1BFD0152
:101BC0000DC0AA1FBB1FEE1FFF1FA217B307E4071C
:101BD000F50720F0A21BB30BE40BF50B661F771F74
:101BE000881F991F1A9469F7609570958095909554
:101BF0009B01AC01BD01CF010895052E97FB1EF49A
:101C000000940E94140E57FD07D00E94DB0D07FCC4
:101C100003D04EF40C94140E5095409530952195B8
:101C20003F4F4F4F5F4F0895909580957095619508
:101C30007F4F8F4F9F4F08950E94660EA59F900D76
:101C4000B49F900DA49F800D911D11240895B7FF9E
:101C50000C941C0E0E941C0E821B930B08952F9255
:101C60003F924F925F926F927F928F929F92AF922C
:101C7000BF92CF92DF92EF92FF920F931F93CF9379
:101C8000DF93CDB7DEB7CA1BDB0B0FB6F894DEBF10
:101C90000FBECDBF09942A88398848885F846E8436
:101CA0007D848C849B84AA84B984C884DF80EE8080
:101CB000FD800C811B81AA81B981CE0FD11D0FB689
:101CC000F894DEBF0FBECDBFED010895A29FB00115
:101CD000B39FC001A39F700D811D1124911DB29F60
:101CE000700D811D1124911D08950E947C0E689431
:101CF000B1110C94C50D08950E94AA0D88F09F574C
:101D000098F0B92F9927B751B0F0E1F0660F771F1F
:101D1000881F991F1AF0BA95C9F714C0B13091F015
:101D20000E94C40DB1E008950C94C40D672F782F64
:101D30008827B85F39F0B93FCCF3869577956795DA
:101D4000B395D9F73EF490958095709561957F4F46
:101D50008F4F9F4F0895FA01EE0FFF1F3096210518
:101D60003105A1F16115710561F48038BFE39B076E
:101D700049F168949038810561F08038BFEF9B0786
:101D800041F099234AF5FF3FE1053105210519F19D
:101D9000E8940894E795D901AA2329F4AB2FBE2F24
:101DA000F85FD0F310C0FF5F70F4A695E0F7F73945
:101DB00050F019F0FF3A38F49F779F930DD00F90B1
:101DC00007FC9058089546F00C94800D60E070E098
:101DD00080E89FE308954FE79F775F934F933F938A
:101DE0002F930E94A60F2F913F914F915F910E94D8
:101DF0000D0D0C94030F29F416F00C947A0D0C942D
:101E0000C40D0C94800D0E94AA0DA8F39638A0F77B
:101E100007F80F92E8942BE33AEA48EB5FE70E9459
:101E2000230D0F920F920F924DB75EB70F920E9443
:101E3000EE0FE8E6F0E00E94350F4F915F91EF91D1
:101E4000FF91E595EE1FFF1F49F0FE57E06844271C
:101E5000EE0F441FFA95E1F74195550B0E94680F6C
:101E60000F9007FE0C945C0F0895DF93CF931F93A0
:101E70000F93FF92EF92DF927B018C01689406C072
:101E8000DA2EEF010E94200DFE01E894A591259124
:101E9000359145915591A6F3EF010E943A10FE014C
:101EA0009701A801DA9469F7DF90EF90FF900F9106
:101EB0001F91CF91DF9108959B01AC0160E070E02C
:101EC00080E89FE30C948F100C947A0D0C94011110
:101ED0000E94AA0DD8F39923C9F3940F511DA3F3BF
:101EE0009150504094F059F0882332F0660F771FDC
:101EF000881F91505040C1F79E3F51052CF7880F25
:101F0000911D9695879597F908955F3FACF0983E9F
:101F10009CF0BB27869577956795B79508F4B160D7
:101F20009395C1F7BB0F58F711F460FFE8CF6F5FCF
:101F30007F4F8F4F9F4FE3CF0C94C50D16F00C943D
:101F400001110C94800D68940C947A0D0E94AA0DD6
:101F5000A8F39923C1F3AEF3DF93CF931F930F93AD
:101F6000FF92C92FDD2788232AF02197660F771F5C
:101F7000881FDAF720E030E040E85FEB9FE3883924
:101F800020F0803E38F021968F770E942310E0E900
:101F9000F0E004C00E942310EDEBF0E00E94350F4A
:101FA0008B01BE01EC01FB2E6F5771097595771FF0
:101FB000880B990B0E94D20C28E132E741E35FE3E2
:101FC0000E94200DAF2D9801AE01FF900F911F913F
:101FD000CF91DF910E943A100C94910DFA01DC012F
:101FE000AA0FBB1F9B01AC01BF5728F42227332740
:101FF0004427507820C0B75190F4AB2F0024469569
:1020000037952795011CA395D2F3002071F0220F7C
:10201000331F441FB395DAF30ED00C9422106130B5
:102020007105A0E88A07B94630F49B01AC01662728
:10203000772788279078309621F020833183428358
:10204000538308955058BB27AA270E943A100C9436
:10205000910D0E94830D38F00E948A0D20F039F412
:102060009F3F19F426F40C94800D0EF4E095E7FBE5
:102070000C947A0DE92F0E94A20D58F3BA1762074B
:1020800073078407950720F079F4A6F50C94C40D26
:102090000EF4E0950B2EBA2FA02D0B01B901900183
:1020A0000C01CA01A0011124FF27591B99F0593FC7
:1020B00050F4503E68F11A16F040A22F232F342F0F
:1020C0004427585FF3CF469537952795A795F0405D
:1020D0005395C9F77EF41F16BA0B620B730B840B72
:1020E000BAF09150A1F0FF0FBB1F661F771F881F2A
:1020F000C2F70EC0BA0F621F731F841F48F4879582
:1021000077956795B795F7959E3F08F0B0CF939573
:10211000880F08F09927EE0F9795879508950E94EC
:10212000A3100C94910D0E948A0D58F00E94830D0B
:1021300040F029F45F3F29F00C947A0D51110C9472
:10214000C50D0C94800D0E94A20D68F39923B1F384
:10215000552391F3951B550BBB27AA2762177307CD
:10216000840738F09F5F5F4F220F331F441FAA1F61
:10217000A9F335D00E2E3AF0E0E832D0915050401D
:10218000E695001CCAF72BD0FE2F29D0660F771FCB
:10219000881FBB1F261737074807AB07B0E809F0B1
:1021A000BB0B802DBF01FF2793585F4F3AF09E3F36
:1021B000510578F00C947A0D0C94C50D5F3FE4F353
:1021C000983ED4F3869577956795B795F7959F5F79
:1021D000C9F7880F911D9695879597F90895E1E0C5
:1021E000660F771F881FBB1F621773078407BA0724
:1021F00020F0621B730B840BBA0BEE1F88F7E0957F
:1022000008959F3F31F0915020F487957795679519
:10221000B795880F911D9695879597F908956894BD
:1022200001C0E8948F929F92CF93DF930E941D117B
:10223000DF91CF919F908F90089588249924F40185
:10224000E401B0E49F93AA279A158B049C04ED0542
:10225000FE05CF05D007A10798F4AD2FDC2FCF2FB7
:10226000FE2FE92D982C892E982F872F762F652FFA
:10227000542F432F322F2227B85031F7BF9127C058
:102280001B2EBF91BB27220F331F441F551F661FF4
:10229000771F881F991F881C991CEE1FFF1FCC1FDA
:1022A000DD1FAA1FBB1F8A149B04EC05FD05CE058C
:1022B000DF05A007B10748F08A189B08EC09FD0963
:1022C000CE09DF09A00BB10B21601A94E1F62EF4C0
:1022D0009401AF01BE01CD01000C08950024A7FDBB
:1022E00000942A17300540055005600570058005EB
:1022F00090050895EE0FFF1F0590F491E02D0994CD
:10230000CF93DF938230910510F482E090E0E0916A
:10231000F701F091F80120E030E0C0E0D0E0309724
:1023200011F14081518148175907C0F048175907EA
:1023300061F482819381209719F09B838A832BC05B
:102340009093F8018093F70126C02115310519F00B
:102350004217530718F49A01BE01DF01EF01028012
:10236000F381E02DDCCF2115310509F1281B390B54
:102370002430310590F412968D919C91139761153C
:10238000710521F0FB019383828304C09093F801CF
:102390008093F701FD01329644C0FD01E20FF31F67
:1023A00081939193225031092D933C933AC020910F
:1023B000F5013091F601232B41F420910901309170
:1023C0000A013093F6012093F50120910701309125
:1023D00008012115310541F42DB73EB740910B019D
:1023E00050910C01241B350BE091F501F091F601A1
:1023F000E217F307A0F42E1B3F0B2817390778F0DC
:10240000AC014E5F5F4F2417350748F04E0F5F1F3A
:102410005093F6014093F5018193919302C0E0E05F
:10242000F0E0CF01DF91CF9108950F931F93CF93E9
:10243000DF93009709F48CC0FC013297138212825B
:102440000091F7011091F8010115110581F4208127
:102450003181820F931F2091F5013091F6012817E9
:10246000390779F5F093F601E093F50171C0D801D1
:1024700040E050E0AE17BF0750F412962D913C910A
:102480001397AD012115310509F1D901F3CF9D0154
:10249000DA013383228360817181860F971F82174F
:1024A000930769F4EC0128813981260F371F2E5FCD
:1024B0003F4F318320838A819B8193838283452B85
:1024C00029F4F093F801E093F70142C01396FC93CE
:1024D000EE931297ED01499159919E01240F351FFA
:1024E000E217F30771F480819181840F951F0296A2
:1024F00011969C938E938281938113969C938E93D5
:102500001297E0E0F0E0D80112968D919C9113971C
:10251000009719F0F8018C01F6CF8D919C919801EC
:102520002E5F3F4F820F931F2091F5013091F601EE
:102530002817390769F4309729F41092F80110929E
:10254000F70102C0138212821093F6010093F50185
:10255000DF91CF911F910F910895A0E0B0E0E3EBE0
:10256000F2E10C94330EEC01009721F4CB010E94B0
:102570008011B8C0FC01E60FF71F9C012250310901
:10258000E217F30708F4ACC0D9010D911C91119723
:1025900006171707B0F00530110508F49FC0C801F1
:1025A00004978617970708F499C002501109061B73
:1025B000170B019311936D937C93CF010E94151219
:1025C0008DC05B01A01AB10A4C01800E911EA09132
:1025D000F701B091F80140E050E0E12CF12C1097A8
:1025E00009F44AC0A815B905D1F56D907C901197F2
:1025F000630182E0C80ED11CCA14DB0480F1A30180
:102600004A195B096A0182E0C80ED11C1296BC907F
:1026100012971396AC91B5E0CB16D10440F0B2827C
:10262000A38351834083D9016D937C930AC00E5FCD
:102630001F4FC301800F911FF90191838083EB2D00
:10264000FA2FE114F10431F0D7011396FC93EE93C5
:10265000129744C0F093F801E093F7013FC08D91C9
:102660009C9111974817590708F4AC017D01129607
:102670000D90BC91A02DB3CF8091F5019091F60102
:1026800088159905E1F446175707C8F480910701AA
:1026900090910801009741F48DB79EB740910B01CE
:1026A00050910C01841B950BE817F907C8F4F093BF
:1026B000F601E093F501F901718360830FC0CB014E
:1026C0000E9480117C01009759F0A801BE010E9470
:1026D0007C13CE010E941512C70104C0CE0102C0B6
:1026E00080E090E0CDB7DEB7EEE00C944F0E81E0D5
:1026F00090E0F8940C949B13FB01DC0102C0019064
:102700000D9241505040D8F70895FB01DC01019033
:102710000D920020E1F70895FB01DC01415050408B
:1027200048F001900D920020C9F701C01D92415060
:0A2730005040E0F70895F894FFCF41
:10273A00090A0B010000000000F9018000000000F6
:10274A00006B01E700340112012601B2010A0009F7
:02275A0000007D
:00000001FF
